{
  "_format": "hh-sol-artifact-1",
  "contractName": "PolyX",
  "sourceName": "contracts/PolyX.sol",
  "abi": [
    {
      "inputs": [],
      "name": "AlreadyFollowing",
      "type": "error"
    },
    {
      "inputs": [],
      "name": "AlreadyLiked",
      "type": "error"
    },
    {
      "inputs": [],
      "name": "AlreadyQuoted",
      "type": "error"
    },
    {
      "inputs": [],
      "name": "AlreadyRetweeted",
      "type": "error"
    },
    {
      "inputs": [],
      "name": "EmptyContent",
      "type": "error"
    },
    {
      "inputs": [],
      "name": "EmptyHandle",
      "type": "error"
    },
    {
      "inputs": [],
      "name": "HandleTaken",
      "type": "error"
    },
    {
      "inputs": [],
      "name": "NotAuthor",
      "type": "error"
    },
    {
      "inputs": [],
      "name": "NotFollowing",
      "type": "error"
    },
    {
      "inputs": [],
      "name": "PostDoesNotExist",
      "type": "error"
    },
    {
      "inputs": [],
      "name": "ProfileNotFound",
      "type": "error"
    },
    {
      "anonymous": false,
      "inputs": [
        {
          "indexed": true,
          "internalType": "address",
          "name": "from",
          "type": "address"
        },
        {
          "indexed": true,
          "internalType": "address",
          "name": "to",
          "type": "address"
        },
        {
          "indexed": false,
          "internalType": "string",
          "name": "cid",
          "type": "string"
        },
        {
          "indexed": false,
          "internalType": "string",
          "name": "cidHash",
          "type": "string"
        },
        {
          "indexed": false,
          "internalType": "uint256",
          "name": "timestamp",
          "type": "uint256"
        }
      ],
      "name": "ChatAnchored",
      "type": "event"
    },
    {
      "anonymous": false,
      "inputs": [
        {
          "indexed": true,
          "internalType": "uint256",
          "name": "postId",
          "type": "uint256"
        },
        {
          "indexed": true,
          "internalType": "uint256",
          "name": "originalId",
          "type": "uint256"
        },
        {
          "indexed": true,
          "internalType": "address",
          "name": "user",
          "type": "address"
        },
        {
          "indexed": false,
          "internalType": "string",
          "name": "content",
          "type": "string"
        },
        {
          "indexed": false,
          "internalType": "string",
          "name": "mediaCid",
          "type": "string"
        },
        {
          "indexed": false,
          "internalType": "uint256",
          "name": "timestamp",
          "type": "uint256"
        }
      ],
      "name": "Commented",
      "type": "event"
    },
    {
      "anonymous": false,
      "inputs": [
        {
          "indexed": true,
          "internalType": "address",
          "name": "follower",
          "type": "address"
        },
        {
          "indexed": true,
          "internalType": "address",
          "name": "target",
          "type": "address"
        }
      ],
      "name": "Followed",
      "type": "event"
    },
    {
      "anonymous": false,
      "inputs": [
        {
          "indexed": true,
          "internalType": "uint256",
          "name": "postId",
          "type": "uint256"
        },
        {
          "indexed": true,
          "internalType": "address",
          "name": "user",
          "type": "address"
        },
        {
          "indexed": false,
          "internalType": "uint256",
          "name": "timestamp",
          "type": "uint256"
        }
      ],
      "name": "Liked",
      "type": "event"
    },
    {
      "anonymous": false,
      "inputs": [
        {
          "indexed": true,
          "internalType": "uint256",
          "name": "id",
          "type": "uint256"
        },
        {
          "indexed": true,
          "internalType": "address",
          "name": "author",
          "type": "address"
        },
        {
          "indexed": true,
          "internalType": "enum PolyX.PostType",
          "name": "postType",
          "type": "uint8"
        },
        {
          "indexed": false,
          "internalType": "uint256",
          "name": "referenceId",
          "type": "uint256"
        },
        {
          "indexed": false,
          "internalType": "string",
          "name": "content",
          "type": "string"
        },
        {
          "indexed": false,
          "internalType": "string",
          "name": "mediaCid",
          "type": "string"
        },
        {
          "indexed": false,
          "internalType": "uint256",
          "name": "timestamp",
          "type": "uint256"
        }
      ],
      "name": "PostCreated",
      "type": "event"
    },
    {
      "anonymous": false,
      "inputs": [
        {
          "indexed": true,
          "internalType": "uint256",
          "name": "id",
          "type": "uint256"
        },
        {
          "indexed": true,
          "internalType": "address",
          "name": "author",
          "type": "address"
        },
        {
          "indexed": false,
          "internalType": "uint256",
          "name": "timestamp",
          "type": "uint256"
        }
      ],
      "name": "PostDeleted",
      "type": "event"
    },
    {
      "anonymous": false,
      "inputs": [
        {
          "indexed": true,
          "internalType": "uint256",
          "name": "id",
          "type": "uint256"
        },
        {
          "indexed": true,
          "internalType": "address",
          "name": "author",
          "type": "address"
        },
        {
          "indexed": false,
          "internalType": "string",
          "name": "content",
          "type": "string"
        },
        {
          "indexed": false,
          "internalType": "string",
          "name": "mediaCid",
          "type": "string"
        },
        {
          "indexed": false,
          "internalType": "uint256",
          "name": "version",
          "type": "uint256"
        }
      ],
      "name": "PostEdited",
      "type": "event"
    },
    {
      "anonymous": false,
      "inputs": [
        {
          "indexed": true,
          "internalType": "address",
          "name": "owner",
          "type": "address"
        },
        {
          "indexed": false,
          "internalType": "string",
          "name": "handle",
          "type": "string"
        },
        {
          "indexed": false,
          "internalType": "string",
          "name": "displayName",
          "type": "string"
        }
      ],
      "name": "ProfileCreated",
      "type": "event"
    },
    {
      "anonymous": false,
      "inputs": [
        {
          "indexed": true,
          "internalType": "address",
          "name": "owner",
          "type": "address"
        },
        {
          "indexed": false,
          "internalType": "string",
          "name": "handle",
          "type": "string"
        },
        {
          "indexed": false,
          "internalType": "string",
          "name": "displayName",
          "type": "string"
        }
      ],
      "name": "ProfileUpdated",
      "type": "event"
    },
    {
      "anonymous": false,
      "inputs": [
        {
          "indexed": true,
          "internalType": "uint256",
          "name": "postId",
          "type": "uint256"
        },
        {
          "indexed": true,
          "internalType": "uint256",
          "name": "originalId",
          "type": "uint256"
        },
        {
          "indexed": true,
          "internalType": "address",
          "name": "user",
          "type": "address"
        },
        {
          "indexed": false,
          "internalType": "string",
          "name": "content",
          "type": "string"
        },
        {
          "indexed": false,
          "internalType": "string",
          "name": "mediaCid",
          "type": "string"
        },
        {
          "indexed": false,
          "internalType": "uint256",
          "name": "timestamp",
          "type": "uint256"
        }
      ],
      "name": "Quoted",
      "type": "event"
    },
    {
      "anonymous": false,
      "inputs": [
        {
          "indexed": true,
          "internalType": "uint256",
          "name": "postId",
          "type": "uint256"
        },
        {
          "indexed": true,
          "internalType": "uint256",
          "name": "originalId",
          "type": "uint256"
        },
        {
          "indexed": true,
          "internalType": "address",
          "name": "user",
          "type": "address"
        },
        {
          "indexed": false,
          "internalType": "uint256",
          "name": "timestamp",
          "type": "uint256"
        }
      ],
      "name": "Retweeted",
      "type": "event"
    },
    {
      "anonymous": false,
      "inputs": [
        {
          "indexed": true,
          "internalType": "address",
          "name": "follower",
          "type": "address"
        },
        {
          "indexed": true,
          "internalType": "address",
          "name": "target",
          "type": "address"
        }
      ],
      "name": "Unfollowed",
      "type": "event"
    },
    {
      "inputs": [
        {
          "internalType": "address",
          "name": "logicalUser",
          "type": "address"
        },
        {
          "internalType": "address",
          "name": "to",
          "type": "address"
        },
        {
          "internalType": "string",
          "name": "cid",
          "type": "string"
        },
        {
          "internalType": "string",
          "name": "cidHash",
          "type": "string"
        }
      ],
      "name": "anchorChatMessage",
      "outputs": [],
      "stateMutability": "nonpayable",
      "type": "function"
    },
    {
      "inputs": [
        {
          "internalType": "uint256[]",
          "name": "ids",
          "type": "uint256[]"
        }
      ],
      "name": "batchGetPosts",
      "outputs": [
        {
          "components": [
            {
              "internalType": "uint256",
              "name": "id",
              "type": "uint256"
            },
            {
              "internalType": "address",
              "name": "author",
              "type": "address"
            },
            {
              "internalType": "string",
              "name": "content",
              "type": "string"
            },
            {
              "internalType": "string",
              "name": "mediaCid",
              "type": "string"
            },
            {
              "internalType": "uint256",
              "name": "timestamp",
              "type": "uint256"
            },
            {
              "internalType": "enum PolyX.PostType",
              "name": "postType",
              "type": "uint8"
            },
            {
              "internalType": "uint256",
              "name": "referenceId",
              "type": "uint256"
            },
            {
              "internalType": "uint256",
              "name": "likeCount",
              "type": "uint256"
            },
            {
              "internalType": "uint256",
              "name": "retweetCount",
              "type": "uint256"
            },
            {
              "internalType": "uint256",
              "name": "quoteCount",
              "type": "uint256"
            },
            {
              "internalType": "uint256",
              "name": "commentCount",
              "type": "uint256"
            },
            {
              "internalType": "uint256",
              "name": "version",
              "type": "uint256"
            },
            {
              "internalType": "bool",
              "name": "deleted",
              "type": "bool"
            }
          ],
          "internalType": "struct PolyX.Post[]",
          "name": "",
          "type": "tuple[]"
        }
      ],
      "stateMutability": "view",
      "type": "function"
    },
    {
      "inputs": [
        {
          "internalType": "address",
          "name": "logicalUser",
          "type": "address"
        },
        {
          "internalType": "string",
          "name": "content",
          "type": "string"
        },
        {
          "internalType": "string",
          "name": "mediaCid",
          "type": "string"
        },
        {
          "internalType": "enum PolyX.PostType",
          "name": "postType",
          "type": "uint8"
        },
        {
          "internalType": "uint256",
          "name": "referenceId",
          "type": "uint256"
        }
      ],
      "name": "createPost",
      "outputs": [
        {
          "internalType": "uint256",
          "name": "",
          "type": "uint256"
        }
      ],
      "stateMutability": "nonpayable",
      "type": "function"
    },
    {
      "inputs": [
        {
          "internalType": "address",
          "name": "logicalUser",
          "type": "address"
        },
        {
          "internalType": "string",
          "name": "handle",
          "type": "string"
        },
        {
          "internalType": "string",
          "name": "displayName",
          "type": "string"
        },
        {
          "internalType": "string",
          "name": "bio",
          "type": "string"
        },
        {
          "internalType": "string",
          "name": "avatarCid",
          "type": "string"
        },
        {
          "internalType": "string",
          "name": "headerCid",
          "type": "string"
        }
      ],
      "name": "createProfile",
      "outputs": [],
      "stateMutability": "nonpayable",
      "type": "function"
    },
    {
      "inputs": [
        {
          "internalType": "address",
          "name": "logicalUser",
          "type": "address"
        },
        {
          "internalType": "uint256",
          "name": "postId",
          "type": "uint256"
        }
      ],
      "name": "deletePost",
      "outputs": [],
      "stateMutability": "nonpayable",
      "type": "function"
    },
    {
      "inputs": [
        {
          "internalType": "address",
          "name": "logicalUser",
          "type": "address"
        },
        {
          "internalType": "uint256",
          "name": "postId",
          "type": "uint256"
        },
        {
          "internalType": "string",
          "name": "content",
          "type": "string"
        },
        {
          "internalType": "string",
          "name": "mediaCid",
          "type": "string"
        }
      ],
      "name": "editPost",
      "outputs": [],
      "stateMutability": "nonpayable",
      "type": "function"
    },
    {
      "inputs": [
        {
          "internalType": "address",
          "name": "follower",
          "type": "address"
        },
        {
          "internalType": "address",
          "name": "target",
          "type": "address"
        }
      ],
      "name": "follow",
      "outputs": [],
      "stateMutability": "nonpayable",
      "type": "function"
    },
    {
      "inputs": [
        {
          "internalType": "address",
          "name": "follower",
          "type": "address"
        }
      ],
      "name": "getFollowing",
      "outputs": [
        {
          "internalType": "address[]",
          "name": "",
          "type": "address[]"
        }
      ],
      "stateMutability": "view",
      "type": "function"
    },
    {
      "inputs": [
        {
          "internalType": "uint256",
          "name": "postId",
          "type": "uint256"
        }
      ],
      "name": "getPost",
      "outputs": [
        {
          "components": [
            {
              "internalType": "uint256",
              "name": "id",
              "type": "uint256"
            },
            {
              "internalType": "address",
              "name": "author",
              "type": "address"
            },
            {
              "internalType": "string",
              "name": "content",
              "type": "string"
            },
            {
              "internalType": "string",
              "name": "mediaCid",
              "type": "string"
            },
            {
              "internalType": "uint256",
              "name": "timestamp",
              "type": "uint256"
            },
            {
              "internalType": "enum PolyX.PostType",
              "name": "postType",
              "type": "uint8"
            },
            {
              "internalType": "uint256",
              "name": "referenceId",
              "type": "uint256"
            },
            {
              "internalType": "uint256",
              "name": "likeCount",
              "type": "uint256"
            },
            {
              "internalType": "uint256",
              "name": "retweetCount",
              "type": "uint256"
            },
            {
              "internalType": "uint256",
              "name": "quoteCount",
              "type": "uint256"
            },
            {
              "internalType": "uint256",
              "name": "commentCount",
              "type": "uint256"
            },
            {
              "internalType": "uint256",
              "name": "version",
              "type": "uint256"
            },
            {
              "internalType": "bool",
              "name": "deleted",
              "type": "bool"
            }
          ],
          "internalType": "struct PolyX.Post",
          "name": "",
          "type": "tuple"
        }
      ],
      "stateMutability": "view",
      "type": "function"
    },
    {
      "inputs": [
        {
          "internalType": "string",
          "name": "handle",
          "type": "string"
        }
      ],
      "name": "getProfileByHandle",
      "outputs": [
        {
          "components": [
            {
              "internalType": "string",
              "name": "handle",
              "type": "string"
            },
            {
              "internalType": "string",
              "name": "displayName",
              "type": "string"
            },
            {
              "internalType": "string",
              "name": "bio",
              "type": "string"
            },
            {
              "internalType": "string",
              "name": "avatarCid",
              "type": "string"
            },
            {
              "internalType": "string",
              "name": "headerCid",
              "type": "string"
            },
            {
              "internalType": "address",
              "name": "owner",
              "type": "address"
            },
            {
              "internalType": "uint256",
              "name": "createdAt",
              "type": "uint256"
            }
          ],
          "internalType": "struct PolyX.Profile",
          "name": "",
          "type": "tuple"
        }
      ],
      "stateMutability": "view",
      "type": "function"
    },
    {
      "inputs": [
        {
          "internalType": "address",
          "name": "owner",
          "type": "address"
        }
      ],
      "name": "getProfileByOwner",
      "outputs": [
        {
          "components": [
            {
              "internalType": "string",
              "name": "handle",
              "type": "string"
            },
            {
              "internalType": "string",
              "name": "displayName",
              "type": "string"
            },
            {
              "internalType": "string",
              "name": "bio",
              "type": "string"
            },
            {
              "internalType": "string",
              "name": "avatarCid",
              "type": "string"
            },
            {
              "internalType": "string",
              "name": "headerCid",
              "type": "string"
            },
            {
              "internalType": "address",
              "name": "owner",
              "type": "address"
            },
            {
              "internalType": "uint256",
              "name": "createdAt",
              "type": "uint256"
            }
          ],
          "internalType": "struct PolyX.Profile",
          "name": "",
          "type": "tuple"
        }
      ],
      "stateMutability": "view",
      "type": "function"
    },
    {
      "inputs": [
        {
          "internalType": "string",
          "name": "handle",
          "type": "string"
        }
      ],
      "name": "handleAvailable",
      "outputs": [
        {
          "internalType": "bool",
          "name": "",
          "type": "bool"
        }
      ],
      "stateMutability": "view",
      "type": "function"
    },
    {
      "inputs": [
        {
          "internalType": "uint256",
          "name": "postId",
          "type": "uint256"
        },
        {
          "internalType": "address",
          "name": "user",
          "type": "address"
        }
      ],
      "name": "hasLiked",
      "outputs": [
        {
          "internalType": "bool",
          "name": "",
          "type": "bool"
        }
      ],
      "stateMutability": "view",
      "type": "function"
    },
    {
      "inputs": [
        {
          "internalType": "uint256",
          "name": "postId",
          "type": "uint256"
        },
        {
          "internalType": "address",
          "name": "user",
          "type": "address"
        }
      ],
      "name": "hasQuoted",
      "outputs": [
        {
          "internalType": "bool",
          "name": "",
          "type": "bool"
        }
      ],
      "stateMutability": "view",
      "type": "function"
    },
    {
      "inputs": [
        {
          "internalType": "uint256",
          "name": "postId",
          "type": "uint256"
        },
        {
          "internalType": "address",
          "name": "user",
          "type": "address"
        }
      ],
      "name": "hasRetweeted",
      "outputs": [
        {
          "internalType": "bool",
          "name": "",
          "type": "bool"
        }
      ],
      "stateMutability": "view",
      "type": "function"
    },
    {
      "inputs": [
        {
          "internalType": "address",
          "name": "follower",
          "type": "address"
        },
        {
          "internalType": "address",
          "name": "target",
          "type": "address"
        }
      ],
      "name": "isFollowingAddress",
      "outputs": [
        {
          "internalType": "bool",
          "name": "",
          "type": "bool"
        }
      ],
      "stateMutability": "view",
      "type": "function"
    },
    {
      "inputs": [
        {
          "internalType": "address",
          "name": "logicalUser",
          "type": "address"
        },
        {
          "internalType": "uint256",
          "name": "postId",
          "type": "uint256"
        }
      ],
      "name": "like",
      "outputs": [],
      "stateMutability": "nonpayable",
      "type": "function"
    },
    {
      "inputs": [],
      "name": "nextPostId",
      "outputs": [
        {
          "internalType": "uint256",
          "name": "",
          "type": "uint256"
        }
      ],
      "stateMutability": "view",
      "type": "function"
    },
    {
      "inputs": [
        {
          "internalType": "address",
          "name": "follower",
          "type": "address"
        },
        {
          "internalType": "address",
          "name": "target",
          "type": "address"
        }
      ],
      "name": "unfollow",
      "outputs": [],
      "stateMutability": "nonpayable",
      "type": "function"
    },
    {
      "inputs": [
        {
          "internalType": "address",
          "name": "logicalUser",
          "type": "address"
        },
        {
          "internalType": "string",
          "name": "displayName",
          "type": "string"
        },
        {
          "internalType": "string",
          "name": "bio",
          "type": "string"
        },
        {
          "internalType": "string",
          "name": "avatarCid",
          "type": "string"
        },
        {
          "internalType": "string",
          "name": "headerCid",
          "type": "string"
        }
      ],
      "name": "updateProfile",
      "outputs": [],
      "stateMutability": "nonpayable",
      "type": "function"
    }
  ],
  "bytecode": "0x6080604052600160005534801561001557600080fd5b506143df806100256000396000f3fe608060405234801561001057600080fd5b506004361061012c5760003560e01c806371c9a0d0116100ad578063c9f4b84a11610071578063c9f4b84a1461038b578063d8236dff146103a7578063e4626c8f146103d7578063e4843ffc146103f3578063f473d98c1461040f5761012c565b806371c9a0d0146102af57806387b76f11146102df5780638fb7092c1461030f578063912270b01461033f57806399d147c21461036f5761012c565b80632d237f60116100f45780632d237f60146101f957806340731c24146102155780635c09bd98146102455780635dbc7a0b1461026357806363d65180146102935761012c565b806307907ea7146101315780630956848d146101615780630c16de101461017d5780630fa12160146101ad5780631293ffee146101dd575b600080fd5b61014b60048036038101906101469190612f69565b61043f565b6040516101589190612fc4565b60405180910390f35b61017b60048036038101906101769190612fdf565b6104f1565b005b61019760048036038101906101929190613084565b61064c565b6040516101a49190613237565b60405180910390f35b6101c760048036038101906101c29190613259565b610a8c565b6040516101d49190613237565b60405180910390f35b6101f760048036038101906101f29190613286565b610e9b565b005b610213600480360381019061020e919061332d565b610f10565b005b61022f600480360381019061022a91906133d4565b6110ef565b60405161023c91906135a7565b60405180910390f35b61024d611387565b60405161025a91906135d8565b60405180910390f35b61027d600480360381019061027891906135f3565b61138d565b60405161028a9190612fc4565b60405180910390f35b6102ad60048036038101906102a89190613633565b611421565b005b6102c960048036038101906102c49190613084565b6118e4565b6040516102d69190612fc4565b60405180910390f35b6102f960048036038101906102f491906137ba565b61195d565b60405161030691906139e9565b60405180910390f35b61032960048036038101906103249190612f69565b611cd6565b6040516103369190612fc4565b60405180910390f35b61035960048036038101906103549190612f69565b611d88565b6040516103669190612fc4565b60405180910390f35b610389600480360381019061038491906135f3565b611e3a565b005b6103a560048036038101906103a091906135f3565b61212b565b005b6103c160048036038101906103bc9190613259565b6122de565b6040516103ce9190613aba565b60405180910390f35b6103f160048036038101906103ec9190612fdf565b6123ab565b005b61040d60048036038101906104089190613adc565b612573565b005b61042960048036038101906104249190613bfd565b6126e3565b60405161043691906135d8565b60405180910390f35b600082600081148061045357506000548110155b1561048a576040517f24784b6c00000000000000000000000000000000000000000000000000000000815260040160405180910390fd5b6004600085815260200190815260200160002060008473ffffffffffffffffffffffffffffffffffffffff1673ffffffffffffffffffffffffffffffffffffffff16815260200190815260200160002060009054906101000a900460ff1691505092915050565b80600081148061050357506000548110155b1561053a576040517f24784b6c00000000000000000000000000000000000000000000000000000000815260040160405180910390fd5b60006001600084815260200190815260200160002090508373ffffffffffffffffffffffffffffffffffffffff168160010160009054906101000a900473ffffffffffffffffffffffffffffffffffffffff1673ffffffffffffffffffffffffffffffffffffffff16146105da576040517f16aac54f00000000000000000000000000000000000000000000000000000000815260040160405180910390fd5b600181600c0160006101000a81548160ff0219169083151502179055508373ffffffffffffffffffffffffffffffffffffffff16837f5e42e69173be270ce245e462f59bfb0495101b60e83428782275fbca8ec66f0e4260405161063e91906135d8565b60405180910390a350505050565b610654612de6565b600060058484604051610668929190613cf8565b908152602001604051809103902060009054906101000a900473ffffffffffffffffffffffffffffffffffffffff169050600073ffffffffffffffffffffffffffffffffffffffff168173ffffffffffffffffffffffffffffffffffffffff16036106ff576040517f72da560b00000000000000000000000000000000000000000000000000000000815260040160405180910390fd5b600660008273ffffffffffffffffffffffffffffffffffffffff1673ffffffffffffffffffffffffffffffffffffffff1681526020019081526020016000206040518060e001604052908160008201805461075990613d40565b80601f016020809104026020016040519081016040528092919081815260200182805461078590613d40565b80156107d25780601f106107a7576101008083540402835291602001916107d2565b820191906000526020600020905b8154815290600101906020018083116107b557829003601f168201915b505050505081526020016001820180546107eb90613d40565b80601f016020809104026020016040519081016040528092919081815260200182805461081790613d40565b80156108645780601f1061083957610100808354040283529160200191610864565b820191906000526020600020905b81548152906001019060200180831161084757829003601f168201915b5050505050815260200160028201805461087d90613d40565b80601f01602080910402602001604051908101604052809291908181526020018280546108a990613d40565b80156108f65780601f106108cb576101008083540402835291602001916108f6565b820191906000526020600020905b8154815290600101906020018083116108d957829003601f168201915b5050505050815260200160038201805461090f90613d40565b80601f016020809104026020016040519081016040528092919081815260200182805461093b90613d40565b80156109885780601f1061095d57610100808354040283529160200191610988565b820191906000526020600020905b81548152906001019060200180831161096b57829003601f168201915b505050505081526020016004820180546109a190613d40565b80601f01602080910402602001604051908101604052809291908181526020018280546109cd90613d40565b8015610a1a5780601f106109ef57610100808354040283529160200191610a1a565b820191906000526020600020905b8154815290600101906020018083116109fd57829003601f168201915b505050505081526020016005820160009054906101000a900473ffffffffffffffffffffffffffffffffffffffff1673ffffffffffffffffffffffffffffffffffffffff1673ffffffffffffffffffffffffffffffffffffffff16815260200160068201548152505091505092915050565b610a94612de6565b6000600660008473ffffffffffffffffffffffffffffffffffffffff1673ffffffffffffffffffffffffffffffffffffffff1681526020019081526020016000206006015403610b10576040517f72da560b00000000000000000000000000000000000000000000000000000000815260040160405180910390fd5b600660008373ffffffffffffffffffffffffffffffffffffffff1673ffffffffffffffffffffffffffffffffffffffff1681526020019081526020016000206040518060e0016040529081600082018054610b6a90613d40565b80601f0160208091040260200160405190810160405280929190818152602001828054610b9690613d40565b8015610be35780601f10610bb857610100808354040283529160200191610be3565b820191906000526020600020905b815481529060010190602001808311610bc657829003601f168201915b50505050508152602001600182018054610bfc90613d40565b80601f0160208091040260200160405190810160405280929190818152602001828054610c2890613d40565b8015610c755780601f10610c4a57610100808354040283529160200191610c75565b820191906000526020600020905b815481529060010190602001808311610c5857829003601f168201915b50505050508152602001600282018054610c8e90613d40565b80601f0160208091040260200160405190810160405280929190818152602001828054610cba90613d40565b8015610d075780601f10610cdc57610100808354040283529160200191610d07565b820191906000526020600020905b815481529060010190602001808311610cea57829003601f168201915b50505050508152602001600382018054610d2090613d40565b80601f0160208091040260200160405190810160405280929190818152602001828054610d4c90613d40565b8015610d995780601f10610d6e57610100808354040283529160200191610d99565b820191906000526020600020905b815481529060010190602001808311610d7c57829003601f168201915b50505050508152602001600482018054610db290613d40565b80601f0160208091040260200160405190810160405280929190818152602001828054610dde90613d40565b8015610e2b5780601f10610e0057610100808354040283529160200191610e2b565b820191906000526020600020905b815481529060010190602001808311610e0e57829003601f168201915b505050505081526020016005820160009054906101000a900473ffffffffffffffffffffffffffffffffffffffff1673ffffffffffffffffffffffffffffffffffffffff1673ffffffffffffffffffffffffffffffffffffffff1681526020016006820154815250509050919050565b8473ffffffffffffffffffffffffffffffffffffffff168673ffffffffffffffffffffffffffffffffffffffff167f1551672b076eb568cc736934cf36d9071061e716c483bc38372a0d20c7b94eee8686868642604051610f00959493929190613daf565b60405180910390a3505050505050565b846000811480610f2257506000548110155b15610f59576040517f24784b6c00000000000000000000000000000000000000000000000000000000815260040160405180910390fd5b60006001600088815260200190815260200160002090508773ffffffffffffffffffffffffffffffffffffffff168160010160009054906101000a900473ffffffffffffffffffffffffffffffffffffffff1673ffffffffffffffffffffffffffffffffffffffff1614610ff9576040517f16aac54f00000000000000000000000000000000000000000000000000000000815260040160405180910390fd5b60008686905014801561100f5750600084849050145b15611046576040517f68b3703600000000000000000000000000000000000000000000000000000000815260040160405180910390fd5b8585826002019182611059929190613fde565b50838382600301918261106d929190613fde565b50600181600b01600082825461108391906140dd565b925050819055508773ffffffffffffffffffffffffffffffffffffffff16877fcaa51c1b2ea62ee1e115bfbe792302bf20da6df12bb058df97c18f6967277e2c8888888887600b01546040516110dd959493929190613daf565b60405180910390a35050505050505050565b6110f7612e39565b81600081148061110957506000548110155b15611140576040517f24784b6c00000000000000000000000000000000000000000000000000000000815260040160405180910390fd5b60016000848152602001908152602001600020604051806101a0016040529081600082015481526020016001820160009054906101000a900473ffffffffffffffffffffffffffffffffffffffff1673ffffffffffffffffffffffffffffffffffffffff1673ffffffffffffffffffffffffffffffffffffffff1681526020016002820180546111cf90613d40565b80601f01602080910402602001604051908101604052809291908181526020018280546111fb90613d40565b80156112485780601f1061121d57610100808354040283529160200191611248565b820191906000526020600020905b81548152906001019060200180831161122b57829003601f168201915b5050505050815260200160038201805461126190613d40565b80601f016020809104026020016040519081016040528092919081815260200182805461128d90613d40565b80156112da5780601f106112af576101008083540402835291602001916112da565b820191906000526020600020905b8154815290600101906020018083116112bd57829003601f168201915b50505050508152602001600482015481526020016005820160009054906101000a900460ff16600381111561131257611311613401565b5b600381111561132457611323613401565b5b815260200160068201548152602001600782015481526020016008820154815260200160098201548152602001600a8201548152602001600b8201548152602001600c820160009054906101000a900460ff161515151581525050915050919050565b60005481565b6000600860008473ffffffffffffffffffffffffffffffffffffffff1673ffffffffffffffffffffffffffffffffffffffff16815260200190815260200160002060008373ffffffffffffffffffffffffffffffffffffffff1673ffffffffffffffffffffffffffffffffffffffff16815260200190815260200160002060009054906101000a900460ff16905092915050565b60008a8a90500361145e576040517f75ebfc4900000000000000000000000000000000000000000000000000000000815260040160405180910390fd5b6000600660008d73ffffffffffffffffffffffffffffffffffffffff1673ffffffffffffffffffffffffffffffffffffffff16815260200190815260200160002060060154146114da576040517f902815b900000000000000000000000000000000000000000000000000000000815260040160405180910390fd5b600073ffffffffffffffffffffffffffffffffffffffff1660058b8b604051611504929190613cf8565b908152602001604051809103902060009054906101000a900473ffffffffffffffffffffffffffffffffffffffff1673ffffffffffffffffffffffffffffffffffffffff1614611580576040517f902815b900000000000000000000000000000000000000000000000000000000815260040160405180910390fd5b60006040518060e001604052808c8c8080601f016020809104026020016040519081016040528093929190818152602001838380828437600081840152601f19601f8201169050808301925050505050505081526020018a8a8080601f016020809104026020016040519081016040528093929190818152602001838380828437600081840152601f19601f82011690508083019250505050505050815260200188888080601f016020809104026020016040519081016040528093929190818152602001838380828437600081840152601f19601f82011690508083019250505050505050815260200186868080601f016020809104026020016040519081016040528093929190818152602001838380828437600081840152601f19601f82011690508083019250505050505050815260200184848080601f016020809104026020016040519081016040528093929190818152602001838380828437600081840152601f19601f8201169050808301925050505050505081526020018d73ffffffffffffffffffffffffffffffffffffffff16815260200142815250905080600660008e73ffffffffffffffffffffffffffffffffffffffff1673ffffffffffffffffffffffffffffffffffffffff16815260200190815260200160002060008201518160000190816117769190614111565b50602082015181600101908161178c9190614111565b5060408201518160020190816117a29190614111565b5060608201518160030190816117b89190614111565b5060808201518160040190816117ce9190614111565b5060a08201518160050160006101000a81548173ffffffffffffffffffffffffffffffffffffffff021916908373ffffffffffffffffffffffffffffffffffffffff16021790555060c082015181600601559050508b60058c8c604051611836929190613cf8565b908152602001604051809103902060006101000a81548173ffffffffffffffffffffffffffffffffffffffff021916908373ffffffffffffffffffffffffffffffffffffffff1602179055508b73ffffffffffffffffffffffffffffffffffffffff167f6b4494367229a908b0585b361e2871a21f8eb4cd852c02f55c9e06989f4bb2aa8c8c8c8c6040516118ce94939291906141e3565b60405180910390a2505050505050505050505050565b60008073ffffffffffffffffffffffffffffffffffffffff166005848460405161190f929190613cf8565b908152602001604051809103902060009054906101000a900473ffffffffffffffffffffffffffffffffffffffff1673ffffffffffffffffffffffffffffffffffffffff1614905092915050565b606060008383905067ffffffffffffffff81111561197e5761197d613e03565b5b6040519080825280602002602001820160405280156119b757816020015b6119a4612e39565b81526020019060019003908161199c5790505b50905060005b84849050811015611ccb5760008585838181106119dd576119dc61421e565b5b905060200201351480611a0b5750600054858583818110611a0157611a0061421e565b5b9050602002013510155b15611a42576040517f24784b6c00000000000000000000000000000000000000000000000000000000815260040160405180910390fd5b60016000868684818110611a5957611a5861421e565b5b905060200201358152602001908152602001600020604051806101a0016040529081600082015481526020016001820160009054906101000a900473ffffffffffffffffffffffffffffffffffffffff1673ffffffffffffffffffffffffffffffffffffffff1673ffffffffffffffffffffffffffffffffffffffff168152602001600282018054611aea90613d40565b80601f0160208091040260200160405190810160405280929190818152602001828054611b1690613d40565b8015611b635780601f10611b3857610100808354040283529160200191611b63565b820191906000526020600020905b815481529060010190602001808311611b4657829003601f168201915b50505050508152602001600382018054611b7c90613d40565b80601f0160208091040260200160405190810160405280929190818152602001828054611ba890613d40565b8015611bf55780601f10611bca57610100808354040283529160200191611bf5565b820191906000526020600020905b815481529060010190602001808311611bd857829003601f168201915b50505050508152602001600482015481526020016005820160009054906101000a900460ff166003811115611c2d57611c2c613401565b5b6003811115611c3f57611c3e613401565b5b815260200160068201548152602001600782015481526020016008820154815260200160098201548152602001600a8201548152602001600b8201548152602001600c820160009054906101000a900460ff161515151581525050828281518110611cad57611cac61421e565b5b60200260200101819052508080611cc39061424d565b9150506119bd565b508091505092915050565b6000826000811480611cea57506000548110155b15611d21576040517f24784b6c00000000000000000000000000000000000000000000000000000000815260040160405180910390fd5b6002600085815260200190815260200160002060008473ffffffffffffffffffffffffffffffffffffffff1673ffffffffffffffffffffffffffffffffffffffff16815260200190815260200160002060009054906101000a900460ff1691505092915050565b6000826000811480611d9c57506000548110155b15611dd3576040517f24784b6c00000000000000000000000000000000000000000000000000000000815260040160405180910390fd5b6003600085815260200190815260200160002060008473ffffffffffffffffffffffffffffffffffffffff1673ffffffffffffffffffffffffffffffffffffffff16815260200190815260200160002060009054906101000a900460ff1691505092915050565b600073ffffffffffffffffffffffffffffffffffffffff168173ffffffffffffffffffffffffffffffffffffffff161480611ea057508073ffffffffffffffffffffffffffffffffffffffff168273ffffffffffffffffffffffffffffffffffffffff16145b15611ed7576040517f8b67bbcc00000000000000000000000000000000000000000000000000000000815260040160405180910390fd5b600860008373ffffffffffffffffffffffffffffffffffffffff1673ffffffffffffffffffffffffffffffffffffffff16815260200190815260200160002060008273ffffffffffffffffffffffffffffffffffffffff1673ffffffffffffffffffffffffffffffffffffffff16815260200190815260200160002060009054906101000a900460ff1615611f98576040517f46304f2400000000000000000000000000000000000000000000000000000000815260040160405180910390fd5b6001600860008473ffffffffffffffffffffffffffffffffffffffff1673ffffffffffffffffffffffffffffffffffffffff16815260200190815260200160002060008373ffffffffffffffffffffffffffffffffffffffff1673ffffffffffffffffffffffffffffffffffffffff16815260200190815260200160002060006101000a81548160ff021916908315150217905550600760008373ffffffffffffffffffffffffffffffffffffffff1673ffffffffffffffffffffffffffffffffffffffff168152602001908152602001600020819080600181540180825580915050600190039060005260206000200160009091909190916101000a81548173ffffffffffffffffffffffffffffffffffffffff021916908373ffffffffffffffffffffffffffffffffffffffff1602179055508073ffffffffffffffffffffffffffffffffffffffff168273ffffffffffffffffffffffffffffffffffffffff167f6178e95c138f06036cdc07a49ed6a3d23008969fa143baeceb037ebae22e8d1460405160405180910390a35050565b600860008373ffffffffffffffffffffffffffffffffffffffff1673ffffffffffffffffffffffffffffffffffffffff16815260200190815260200160002060008273ffffffffffffffffffffffffffffffffffffffff1673ffffffffffffffffffffffffffffffffffffffff16815260200190815260200160002060009054906101000a900460ff166121eb576040517f8b67bbcc00000000000000000000000000000000000000000000000000000000815260040160405180910390fd5b6000600860008473ffffffffffffffffffffffffffffffffffffffff1673ffffffffffffffffffffffffffffffffffffffff16815260200190815260200160002060008373ffffffffffffffffffffffffffffffffffffffff1673ffffffffffffffffffffffffffffffffffffffff16815260200190815260200160002060006101000a81548160ff0219169083151502179055508073ffffffffffffffffffffffffffffffffffffffff168273ffffffffffffffffffffffffffffffffffffffff167f25b48012798806863072289354ed0b3849b73152482d9c6694e5cbb35f38d5e360405160405180910390a35050565b6060600760008373ffffffffffffffffffffffffffffffffffffffff1673ffffffffffffffffffffffffffffffffffffffff16815260200190815260200160002080548060200260200160405190810160405280929190818152602001828054801561239f57602002820191906000526020600020905b8160009054906101000a900473ffffffffffffffffffffffffffffffffffffffff1673ffffffffffffffffffffffffffffffffffffffff1681526020019060010190808311612355575b50505050509050919050565b8060008114806123bd57506000548110155b156123f4576040517f24784b6c00000000000000000000000000000000000000000000000000000000815260040160405180910390fd5b6002600083815260200190815260200160002060008473ffffffffffffffffffffffffffffffffffffffff1673ffffffffffffffffffffffffffffffffffffffff16815260200190815260200160002060009054906101000a900460ff1615612489576040517f22aba90d00000000000000000000000000000000000000000000000000000000815260040160405180910390fd5b60016002600084815260200190815260200160002060008573ffffffffffffffffffffffffffffffffffffffff1673ffffffffffffffffffffffffffffffffffffffff16815260200190815260200160002060006101000a81548160ff0219169083151502179055506001806000848152602001908152602001600020600701600082825461251891906140dd565b925050819055508273ffffffffffffffffffffffffffffffffffffffff16827f7d5458e61bf2bf76987ce638f841daaa06b8829aae898a0eb343f41e38aa082f4260405161256691906135d8565b60405180910390a3505050565b6000600660008b73ffffffffffffffffffffffffffffffffffffffff1673ffffffffffffffffffffffffffffffffffffffff16815260200190815260200160002060060154036125ef576040517f72da560b00000000000000000000000000000000000000000000000000000000815260040160405180910390fd5b6000600660008b73ffffffffffffffffffffffffffffffffffffffff1673ffffffffffffffffffffffffffffffffffffffff16815260200190815260200160002090508888826001019182612645929190613fde565b508686826002019182612659929190613fde565b50848482600301918261266d929190613fde565b508282826004019182612681929190613fde565b508973ffffffffffffffffffffffffffffffffffffffff167f6eb3a1c6a4675ba92d44e090515b1ceea358f26565d2854df0c99c3f5eaf9850826000018b8b6040516126cf93929190614319565b60405180910390a250505050505050505050565b600080878790501480156126fa5750600085859050145b15612731576040517f68b3703600000000000000000000000000000000000000000000000000000000815260040160405180910390fd5b60006127c88989898080601f016020809104026020016040519081016040528093929190818152602001838380828437600081840152601f19601f8201169050808301925050505050505088888080601f016020809104026020016040519081016040528093929190818152602001838380828437600081840152601f19601f820116905080830192505050505050508787612b2e565b9050600160038111156127de576127dd613401565b5b8460038111156127f1576127f0613401565b5b036128e15760016003600085815260200190815260200160002060008b73ffffffffffffffffffffffffffffffffffffffff1673ffffffffffffffffffffffffffffffffffffffff16815260200190815260200160002060006101000a81548160ff0219169083151502179055506001806000858152602001908152602001600020600801600082825461288591906140dd565b925050819055508873ffffffffffffffffffffffffffffffffffffffff1683827f2a2f67f5a5a11f2e2c6954ba09f62132f8e69a500e2fc2f2a54c936826ee444c426040516128d491906135d8565b60405180910390a4612ab3565b600260038111156128f5576128f4613401565b5b84600381111561290857612907613401565b5b03612a005760016004600085815260200190815260200160002060008b73ffffffffffffffffffffffffffffffffffffffff1673ffffffffffffffffffffffffffffffffffffffff16815260200190815260200160002060006101000a81548160ff0219169083151502179055506001806000858152602001908152602001600020600901600082825461299c91906140dd565b925050819055508873ffffffffffffffffffffffffffffffffffffffff1683827fdf277ea31bb341dad0f37a83d8373596f8830a543e495f08e468314d714819868b8b8b8b426040516129f3959493929190613daf565b60405180910390a4612ab2565b600380811115612a1357612a12613401565b5b846003811115612a2657612a25613401565b5b03612ab1576001806000858152602001908152602001600020600a016000828254612a5191906140dd565b925050819055508873ffffffffffffffffffffffffffffffffffffffff1683827fa9fa10cc9b0032d684b3c07c972cf00c1f2e64bcadd330ad1acb4f39ec39ea4d8b8b8b8b42604051612aa8959493929190613daf565b60405180910390a45b5b5b836003811115612ac657612ac5613401565b5b8973ffffffffffffffffffffffffffffffffffffffff16827fdd0cc5261d0904c3764c198b86dace602376322d5e9e662d2013ef470f78034b868c8c8c8c42604051612b1796959493929190614352565b60405180910390a480915050979650505050505050565b6000806003811115612b4357612b42613401565b5b836003811115612b5657612b55613401565b5b14158015612b645750600082145b15612b9b576040517f24784b6c00000000000000000000000000000000000000000000000000000000815260040160405180910390fd5b60006003811115612baf57612bae613401565b5b836003811115612bc257612bc1613401565b5b14158015612bd257506000548210155b15612c09576040517f24784b6c00000000000000000000000000000000000000000000000000000000815260040160405180910390fd5b6000806000815480929190612c1d9061424d565b919050559050604051806101a001604052808281526020018873ffffffffffffffffffffffffffffffffffffffff168152602001878152602001868152602001428152602001856003811115612c7657612c75613401565b5b8152602001848152602001600081526020016000815260200160008152602001600081526020016000815260200160001515815250600160008381526020019081526020016000206000820151816000015560208201518160010160006101000a81548173ffffffffffffffffffffffffffffffffffffffff021916908373ffffffffffffffffffffffffffffffffffffffff1602179055506040820151816002019081612d249190614111565b506060820151816003019081612d3a9190614111565b506080820151816004015560a08201518160050160006101000a81548160ff02191690836003811115612d7057612d6f613401565b5b021790555060c0820151816006015560e082015181600701556101008201518160080155610120820151816009015561014082015181600a015561016082015181600b015561018082015181600c0160006101000a81548160ff0219169083151502179055509050508091505095945050505050565b6040518060e001604052806060815260200160608152602001606081526020016060815260200160608152602001600073ffffffffffffffffffffffffffffffffffffffff168152602001600081525090565b604051806101a0016040528060008152602001600073ffffffffffffffffffffffffffffffffffffffff16815260200160608152602001606081526020016000815260200160006003811115612e9257612e91613401565b5b81526020016000815260200160008152602001600081526020016000815260200160008152602001600081526020016000151581525090565b600080fd5b600080fd5b6000819050919050565b612ee881612ed5565b8114612ef357600080fd5b50565b600081359050612f0581612edf565b92915050565b600073ffffffffffffffffffffffffffffffffffffffff82169050919050565b6000612f3682612f0b565b9050919050565b612f4681612f2b565b8114612f5157600080fd5b50565b600081359050612f6381612f3d565b92915050565b60008060408385031215612f8057612f7f612ecb565b5b6000612f8e85828601612ef6565b9250506020612f9f85828601612f54565b9150509250929050565b60008115159050919050565b612fbe81612fa9565b82525050565b6000602082019050612fd96000830184612fb5565b92915050565b60008060408385031215612ff657612ff5612ecb565b5b600061300485828601612f54565b925050602061301585828601612ef6565b9150509250929050565b600080fd5b600080fd5b600080fd5b60008083601f8401126130445761304361301f565b5b8235905067ffffffffffffffff81111561306157613060613024565b5b60208301915083600182028301111561307d5761307c613029565b5b9250929050565b6000806020838503121561309b5761309a612ecb565b5b600083013567ffffffffffffffff8111156130b9576130b8612ed0565b5b6130c58582860161302e565b92509250509250929050565b600081519050919050565b600082825260208201905092915050565b60005b8381101561310b5780820151818401526020810190506130f0565b60008484015250505050565b6000601f19601f8301169050919050565b6000613133826130d1565b61313d81856130dc565b935061314d8185602086016130ed565b61315681613117565b840191505092915050565b61316a81612f2b565b82525050565b61317981612ed5565b82525050565b600060e083016000830151848203600086015261319c8282613128565b915050602083015184820360208601526131b68282613128565b915050604083015184820360408601526131d08282613128565b915050606083015184820360608601526131ea8282613128565b915050608083015184820360808601526132048282613128565b91505060a083015161321960a0860182613161565b5060c083015161322c60c0860182613170565b508091505092915050565b60006020820190508181036000830152613251818461317f565b905092915050565b60006020828403121561326f5761326e612ecb565b5b600061327d84828501612f54565b91505092915050565b600080600080600080608087890312156132a3576132a2612ecb565b5b60006132b189828a01612f54565b96505060206132c289828a01612f54565b955050604087013567ffffffffffffffff8111156132e3576132e2612ed0565b5b6132ef89828a0161302e565b9450945050606087013567ffffffffffffffff81111561331257613311612ed0565b5b61331e89828a0161302e565b92509250509295509295509295565b6000806000806000806080878903121561334a57613349612ecb565b5b600061335889828a01612f54565b965050602061336989828a01612ef6565b955050604087013567ffffffffffffffff81111561338a57613389612ed0565b5b61339689828a0161302e565b9450945050606087013567ffffffffffffffff8111156133b9576133b8612ed0565b5b6133c589828a0161302e565b92509250509295509295509295565b6000602082840312156133ea576133e9612ecb565b5b60006133f884828501612ef6565b91505092915050565b7f4e487b7100000000000000000000000000000000000000000000000000000000600052602160045260246000fd5b6004811061344157613440613401565b5b50565b600081905061345282613430565b919050565b600061346282613444565b9050919050565b61347281613457565b82525050565b61348181612fa9565b82525050565b60006101a0830160008301516134a06000860182613170565b5060208301516134b36020860182613161565b50604083015184820360408601526134cb8282613128565b915050606083015184820360608601526134e58282613128565b91505060808301516134fa6080860182613170565b5060a083015161350d60a0860182613469565b5060c083015161352060c0860182613170565b5060e083015161353360e0860182613170565b50610100830151613548610100860182613170565b5061012083015161355d610120860182613170565b50610140830151613572610140860182613170565b50610160830151613587610160860182613170565b5061018083015161359c610180860182613478565b508091505092915050565b600060208201905081810360008301526135c18184613487565b905092915050565b6135d281612ed5565b82525050565b60006020820190506135ed60008301846135c9565b92915050565b6000806040838503121561360a57613609612ecb565b5b600061361885828601612f54565b925050602061362985828601612f54565b9150509250929050565b600080600080600080600080600080600060c08c8e03121561365857613657612ecb565b5b60006136668e828f01612f54565b9b505060208c013567ffffffffffffffff81111561368757613686612ed0565b5b6136938e828f0161302e565b9a509a505060408c013567ffffffffffffffff8111156136b6576136b5612ed0565b5b6136c28e828f0161302e565b985098505060608c013567ffffffffffffffff8111156136e5576136e4612ed0565b5b6136f18e828f0161302e565b965096505060808c013567ffffffffffffffff81111561371457613713612ed0565b5b6137208e828f0161302e565b945094505060a08c013567ffffffffffffffff81111561374357613742612ed0565b5b61374f8e828f0161302e565b92509250509295989b509295989b9093969950565b60008083601f84011261377a5761377961301f565b5b8235905067ffffffffffffffff81111561379757613796613024565b5b6020830191508360208202830111156137b3576137b2613029565b5b9250929050565b600080602083850312156137d1576137d0612ecb565b5b600083013567ffffffffffffffff8111156137ef576137ee612ed0565b5b6137fb85828601613764565b92509250509250929050565b600081519050919050565b600082825260208201905092915050565b6000819050602082019050919050565b60006101a08301600083015161384c6000860182613170565b50602083015161385f6020860182613161565b50604083015184820360408601526138778282613128565b915050606083015184820360608601526138918282613128565b91505060808301516138a66080860182613170565b5060a08301516138b960a0860182613469565b5060c08301516138cc60c0860182613170565b5060e08301516138df60e0860182613170565b506101008301516138f4610100860182613170565b50610120830151613909610120860182613170565b5061014083015161391e610140860182613170565b50610160830151613933610160860182613170565b50610180830151613948610180860182613478565b508091505092915050565b600061395f8383613833565b905092915050565b6000602082019050919050565b600061397f82613807565b6139898185613812565b93508360208202850161399b85613823565b8060005b858110156139d757848403895281516139b88582613953565b94506139c383613967565b925060208a0199505060018101905061399f565b50829750879550505050505092915050565b60006020820190508181036000830152613a038184613974565b905092915050565b600081519050919050565b600082825260208201905092915050565b6000819050602082019050919050565b6000613a438383613161565b60208301905092915050565b6000602082019050919050565b6000613a6782613a0b565b613a718185613a16565b9350613a7c83613a27565b8060005b83811015613aad578151613a948882613a37565b9750613a9f83613a4f565b925050600181019050613a80565b5085935050505092915050565b60006020820190508181036000830152613ad48184613a5c565b905092915050565b600080600080600080600080600060a08a8c031215613afe57613afd612ecb565b5b6000613b0c8c828d01612f54565b99505060208a013567ffffffffffffffff811115613b2d57613b2c612ed0565b5b613b398c828d0161302e565b985098505060408a013567ffffffffffffffff811115613b5c57613b5b612ed0565b5b613b688c828d0161302e565b965096505060608a013567ffffffffffffffff811115613b8b57613b8a612ed0565b5b613b978c828d0161302e565b945094505060808a013567ffffffffffffffff811115613bba57613bb9612ed0565b5b613bc68c828d0161302e565b92509250509295985092959850929598565b60048110613be557600080fd5b50565b600081359050613bf781613bd8565b92915050565b600080600080600080600060a0888a031215613c1c57613c1b612ecb565b5b6000613c2a8a828b01612f54565b975050602088013567ffffffffffffffff811115613c4b57613c4a612ed0565b5b613c578a828b0161302e565b9650965050604088013567ffffffffffffffff811115613c7a57613c79612ed0565b5b613c868a828b0161302e565b94509450506060613c998a828b01613be8565b9250506080613caa8a828b01612ef6565b91505092959891949750929550565b600081905092915050565b82818337600083830152505050565b6000613cdf8385613cb9565b9350613cec838584613cc4565b82840190509392505050565b6000613d05828486613cd3565b91508190509392505050565b7f4e487b7100000000000000000000000000000000000000000000000000000000600052602260045260246000fd5b60006002820490506001821680613d5857607f821691505b602082108103613d6b57613d6a613d11565b5b50919050565b600082825260208201905092915050565b6000613d8e8385613d71565b9350613d9b838584613cc4565b613da483613117565b840190509392505050565b60006060820190508181036000830152613dca818789613d82565b90508181036020830152613ddf818587613d82565b9050613dee60408301846135c9565b9695505050505050565b600082905092915050565b7f4e487b7100000000000000000000000000000000000000000000000000000000600052604160045260246000fd5b60008190508160005260206000209050919050565b60006020601f8301049050919050565b600082821b905092915050565b600060088302613e947fffffffffffffffffffffffffffffffffffffffffffffffffffffffffffffffff82613e57565b613e9e8683613e57565b95508019841693508086168417925050509392505050565b6000819050919050565b6000613edb613ed6613ed184612ed5565b613eb6565b612ed5565b9050919050565b6000819050919050565b613ef583613ec0565b613f09613f0182613ee2565b848454613e64565b825550505050565b600090565b613f1e613f11565b613f29818484613eec565b505050565b5b81811015613f4d57613f42600082613f16565b600181019050613f2f565b5050565b601f821115613f9257613f6381613e32565b613f6c84613e47565b81016020851015613f7b578190505b613f8f613f8785613e47565b830182613f2e565b50505b505050565b600082821c905092915050565b6000613fb560001984600802613f97565b1980831691505092915050565b6000613fce8383613fa4565b9150826002028217905092915050565b613fe88383613df8565b67ffffffffffffffff81111561400157614000613e03565b5b61400b8254613d40565b614016828285613f51565b6000601f8311600181146140455760008415614033578287013590505b61403d8582613fc2565b8655506140a5565b601f19841661405386613e32565b60005b8281101561407b57848901358255600182019150602085019450602081019050614056565b868310156140985784890135614094601f891682613fa4565b8355505b6001600288020188555050505b50505050505050565b7f4e487b7100000000000000000000000000000000000000000000000000000000600052601160045260246000fd5b60006140e882612ed5565b91506140f383612ed5565b925082820190508082111561410b5761410a6140ae565b5b92915050565b61411a826130d1565b67ffffffffffffffff81111561413357614132613e03565b5b61413d8254613d40565b614148828285613f51565b600060209050601f83116001811461417b5760008415614169578287015190505b6141738582613fc2565b8655506141db565b601f19841661418986613e32565b60005b828110156141b15784890151825560018201915060208501945060208101905061418c565b868310156141ce57848901516141ca601f891682613fa4565b8355505b6001600288020188555050505b505050505050565b600060408201905081810360008301526141fe818688613d82565b90508181036020830152614213818486613d82565b905095945050505050565b7f4e487b7100000000000000000000000000000000000000000000000000000000600052603260045260246000fd5b600061425882612ed5565b91507fffffffffffffffffffffffffffffffffffffffffffffffffffffffffffffffff820361428a576142896140ae565b5b600182019050919050565b600081546142a281613d40565b6142ac8186613d71565b945060018216600081146142c757600181146142dd57614310565b60ff198316865281151560200286019350614310565b6142e685613e32565b60005b83811015614308578154818901526001820191506020810190506142e9565b808801955050505b50505092915050565b600060408201905081810360008301526143338186614295565b90508181036020830152614348818486613d82565b9050949350505050565b600060808201905061436760008301896135c9565b818103602083015261437a818789613d82565b9050818103604083015261438f818587613d82565b905061439e60608301846135c9565b97965050505050505056fea2646970667358221220e7ba136c40b010344bffe8e4c54bc4fbad78aa85174425161177949199cd2f5264736f6c63430008140033",
  "linkReferences": {},
  "deployedLinkReferences": {}
}