{
  "_format": "hh-sol-artifact-1",
  "contractName": "PolyX",
  "sourceName": "contracts/PolyX.sol",
  "abi": [
    {
      "inputs": [],
      "name": "AlreadyLiked",
      "type": "error"
    },
    {
      "inputs": [],
      "name": "AlreadyRetweeted",
      "type": "error"
    },
    {
      "inputs": [],
      "name": "EmptyContent",
      "type": "error"
    },
    {
      "inputs": [],
      "name": "PostDoesNotExist",
      "type": "error"
    },
    {
      "anonymous": false,
      "inputs": [
        {
          "indexed": true,
          "internalType": "uint256",
          "name": "postId",
          "type": "uint256"
        },
        {
          "indexed": true,
          "internalType": "address",
          "name": "user",
          "type": "address"
        },
        {
          "indexed": false,
          "internalType": "uint256",
          "name": "timestamp",
          "type": "uint256"
        }
      ],
      "name": "Liked",
      "type": "event"
    },
    {
      "anonymous": false,
      "inputs": [
        {
          "indexed": true,
          "internalType": "uint256",
          "name": "id",
          "type": "uint256"
        },
        {
          "indexed": true,
          "internalType": "address",
          "name": "author",
          "type": "address"
        },
        {
          "indexed": true,
          "internalType": "enum PolyX.PostType",
          "name": "postType",
          "type": "uint8"
        },
        {
          "indexed": false,
          "internalType": "uint256",
          "name": "referenceId",
          "type": "uint256"
        },
        {
          "indexed": false,
          "internalType": "string",
          "name": "content",
          "type": "string"
        },
        {
          "indexed": false,
          "internalType": "uint256",
          "name": "timestamp",
          "type": "uint256"
        }
      ],
      "name": "PostCreated",
      "type": "event"
    },
    {
      "anonymous": false,
      "inputs": [
        {
          "indexed": true,
          "internalType": "uint256",
          "name": "postId",
          "type": "uint256"
        },
        {
          "indexed": true,
          "internalType": "uint256",
          "name": "originalId",
          "type": "uint256"
        },
        {
          "indexed": true,
          "internalType": "address",
          "name": "user",
          "type": "address"
        },
        {
          "indexed": false,
          "internalType": "uint256",
          "name": "timestamp",
          "type": "uint256"
        },
        {
          "indexed": false,
          "internalType": "string",
          "name": "content",
          "type": "string"
        }
      ],
      "name": "Quoted",
      "type": "event"
    },
    {
      "anonymous": false,
      "inputs": [
        {
          "indexed": true,
          "internalType": "uint256",
          "name": "postId",
          "type": "uint256"
        },
        {
          "indexed": true,
          "internalType": "uint256",
          "name": "originalId",
          "type": "uint256"
        },
        {
          "indexed": true,
          "internalType": "address",
          "name": "user",
          "type": "address"
        },
        {
          "indexed": false,
          "internalType": "uint256",
          "name": "timestamp",
          "type": "uint256"
        }
      ],
      "name": "Retweeted",
      "type": "event"
    },
    {
      "inputs": [
        {
          "internalType": "uint256[]",
          "name": "ids",
          "type": "uint256[]"
        }
      ],
      "name": "batchGetPosts",
      "outputs": [
        {
          "components": [
            {
              "internalType": "uint256",
              "name": "id",
              "type": "uint256"
            },
            {
              "internalType": "address",
              "name": "author",
              "type": "address"
            },
            {
              "internalType": "string",
              "name": "content",
              "type": "string"
            },
            {
              "internalType": "uint256",
              "name": "timestamp",
              "type": "uint256"
            },
            {
              "internalType": "enum PolyX.PostType",
              "name": "postType",
              "type": "uint8"
            },
            {
              "internalType": "uint256",
              "name": "referenceId",
              "type": "uint256"
            },
            {
              "internalType": "uint256",
              "name": "likeCount",
              "type": "uint256"
            },
            {
              "internalType": "uint256",
              "name": "retweetCount",
              "type": "uint256"
            },
            {
              "internalType": "uint256",
              "name": "quoteCount",
              "type": "uint256"
            }
          ],
          "internalType": "struct PolyX.Post[]",
          "name": "",
          "type": "tuple[]"
        }
      ],
      "stateMutability": "view",
      "type": "function"
    },
    {
      "inputs": [
        {
          "internalType": "address",
          "name": "logicalUser",
          "type": "address"
        },
        {
          "internalType": "string",
          "name": "content",
          "type": "string"
        }
      ],
      "name": "createPost",
      "outputs": [
        {
          "internalType": "uint256",
          "name": "",
          "type": "uint256"
        }
      ],
      "stateMutability": "nonpayable",
      "type": "function"
    },
    {
      "inputs": [
        {
          "internalType": "uint256",
          "name": "postId",
          "type": "uint256"
        }
      ],
      "name": "getPost",
      "outputs": [
        {
          "components": [
            {
              "internalType": "uint256",
              "name": "id",
              "type": "uint256"
            },
            {
              "internalType": "address",
              "name": "author",
              "type": "address"
            },
            {
              "internalType": "string",
              "name": "content",
              "type": "string"
            },
            {
              "internalType": "uint256",
              "name": "timestamp",
              "type": "uint256"
            },
            {
              "internalType": "enum PolyX.PostType",
              "name": "postType",
              "type": "uint8"
            },
            {
              "internalType": "uint256",
              "name": "referenceId",
              "type": "uint256"
            },
            {
              "internalType": "uint256",
              "name": "likeCount",
              "type": "uint256"
            },
            {
              "internalType": "uint256",
              "name": "retweetCount",
              "type": "uint256"
            },
            {
              "internalType": "uint256",
              "name": "quoteCount",
              "type": "uint256"
            }
          ],
          "internalType": "struct PolyX.Post",
          "name": "",
          "type": "tuple"
        }
      ],
      "stateMutability": "view",
      "type": "function"
    },
    {
      "inputs": [
        {
          "internalType": "uint256",
          "name": "postId",
          "type": "uint256"
        },
        {
          "internalType": "address",
          "name": "user",
          "type": "address"
        }
      ],
      "name": "hasLiked",
      "outputs": [
        {
          "internalType": "bool",
          "name": "",
          "type": "bool"
        }
      ],
      "stateMutability": "view",
      "type": "function"
    },
    {
      "inputs": [
        {
          "internalType": "uint256",
          "name": "postId",
          "type": "uint256"
        },
        {
          "internalType": "address",
          "name": "user",
          "type": "address"
        }
      ],
      "name": "hasRetweeted",
      "outputs": [
        {
          "internalType": "bool",
          "name": "",
          "type": "bool"
        }
      ],
      "stateMutability": "view",
      "type": "function"
    },
    {
      "inputs": [
        {
          "internalType": "address",
          "name": "logicalUser",
          "type": "address"
        },
        {
          "internalType": "uint256",
          "name": "postId",
          "type": "uint256"
        }
      ],
      "name": "like",
      "outputs": [],
      "stateMutability": "nonpayable",
      "type": "function"
    },
    {
      "inputs": [],
      "name": "nextPostId",
      "outputs": [
        {
          "internalType": "uint256",
          "name": "",
          "type": "uint256"
        }
      ],
      "stateMutability": "view",
      "type": "function"
    },
    {
      "inputs": [
        {
          "internalType": "address",
          "name": "logicalUser",
          "type": "address"
        },
        {
          "internalType": "uint256",
          "name": "originalId",
          "type": "uint256"
        },
        {
          "internalType": "string",
          "name": "content",
          "type": "string"
        }
      ],
      "name": "quote",
      "outputs": [
        {
          "internalType": "uint256",
          "name": "",
          "type": "uint256"
        }
      ],
      "stateMutability": "nonpayable",
      "type": "function"
    },
    {
      "inputs": [
        {
          "internalType": "address",
          "name": "logicalUser",
          "type": "address"
        },
        {
          "internalType": "uint256",
          "name": "originalId",
          "type": "uint256"
        }
      ],
      "name": "retweet",
      "outputs": [
        {
          "internalType": "uint256",
          "name": "",
          "type": "uint256"
        }
      ],
      "stateMutability": "nonpayable",
      "type": "function"
    }
  ],
  "bytecode": "0x6080604052600160005534801561001557600080fd5b50611def806100256000396000f3fe608060405234801561001057600080fd5b50600436106100935760003560e01c80638fb7092c116100665780638fb7092c14610146578063912270b014610176578063e042e7b2146101a6578063e4626c8f146101d6578063fe7ec5a5146101f257610093565b80633358c80a1461009857806340731c24146100c85780635c09bd98146100f857806387b76f1114610116575b600080fd5b6100b260048036038101906100ad91906111fd565b610222565b6040516100bf9190611280565b60405180910390f35b6100e260048036038101906100dd919061129b565b6103f5565b6040516100ef91906114b2565b60405180910390f35b6101006105cc565b60405161010d9190611280565b60405180910390f35b610130600480360381019061012b919061152a565b6105d2565b60405161013d91906116fe565b60405180910390f35b610160600480360381019061015b9190611720565b61088a565b60405161016d919061177b565b60405180910390f35b610190600480360381019061018b9190611720565b61093c565b60405161019d919061177b565b60405180910390f35b6101c060048036038101906101bb9190611796565b6109ee565b6040516101cd9190611280565b60405180910390f35b6101f060048036038101906101eb9190611796565b610c44565b005b61020c600480360381019061020791906117d6565b610e0c565b6040516102199190611280565b60405180910390f35b600083600081148061023657506000548110155b1561026d576040517f24784b6c00000000000000000000000000000000000000000000000000000000815260040160405180910390fd5b600084849050036102aa576040517f68b3703600000000000000000000000000000000000000000000000000000000815260040160405180910390fd5b600180600087815260200190815260200160002060080160008282546102d09190611865565b92505081905550600061032a8786868080601f016020809104026020016040519081016040528093929190818152602001838380828437600081840152601f19601f82011690508083019250505050505050600289610f14565b90508673ffffffffffffffffffffffffffffffffffffffff1686827ff754d8841e7cc95ec5b26a4c8c6d97c052b5caeff1541a44a1b56542a55a8c1f428989604051610378939291906118e6565b60405180910390a460028081111561039357610392611376565b5b8773ffffffffffffffffffffffffffffffffffffffff16827f700e7a98756de7d0f9121403656e5bb74b3b959187539b82095dadf86fd2aee5898989426040516103e09493929190611918565b60405180910390a48092505050949350505050565b6103fd611086565b81600081148061040f57506000548110155b15610446576040517f24784b6c00000000000000000000000000000000000000000000000000000000815260040160405180910390fd5b6001600084815260200190815260200160002060405180610120016040529081600082015481526020016001820160009054906101000a900473ffffffffffffffffffffffffffffffffffffffff1673ffffffffffffffffffffffffffffffffffffffff1673ffffffffffffffffffffffffffffffffffffffff1681526020016002820180546104d590611987565b80601f016020809104026020016040519081016040528092919081815260200182805461050190611987565b801561054e5780601f106105235761010080835404028352916020019161054e565b820191906000526020600020905b81548152906001019060200180831161053157829003601f168201915b50505050508152602001600382015481526020016004820160009054906101000a900460ff16600281111561058657610585611376565b5b600281111561059857610597611376565b5b8152602001600582015481526020016006820154815260200160078201548152602001600882015481525050915050919050565b60005481565b606060008383905067ffffffffffffffff8111156105f3576105f26119b8565b5b60405190808252806020026020018201604052801561062c57816020015b610619611086565b8152602001906001900390816106115790505b50905060005b8484905081101561087f576000858583818110610652576106516119e7565b5b9050602002013514806106805750600054858583818110610676576106756119e7565b5b9050602002013510155b156106b7576040517f24784b6c00000000000000000000000000000000000000000000000000000000815260040160405180910390fd5b600160008686848181106106ce576106cd6119e7565b5b90506020020135815260200190815260200160002060405180610120016040529081600082015481526020016001820160009054906101000a900473ffffffffffffffffffffffffffffffffffffffff1673ffffffffffffffffffffffffffffffffffffffff1673ffffffffffffffffffffffffffffffffffffffff16815260200160028201805461075f90611987565b80601f016020809104026020016040519081016040528092919081815260200182805461078b90611987565b80156107d85780601f106107ad576101008083540402835291602001916107d8565b820191906000526020600020905b8154815290600101906020018083116107bb57829003601f168201915b50505050508152602001600382015481526020016004820160009054906101000a900460ff1660028111156108105761080f611376565b5b600281111561082257610821611376565b5b8152602001600582015481526020016006820154815260200160078201548152602001600882015481525050828281518110610861576108606119e7565b5b6020026020010181905250808061087790611a16565b915050610632565b508091505092915050565b600082600081148061089e57506000548110155b156108d5576040517f24784b6c00000000000000000000000000000000000000000000000000000000815260040160405180910390fd5b6002600085815260200190815260200160002060008473ffffffffffffffffffffffffffffffffffffffff1673ffffffffffffffffffffffffffffffffffffffff16815260200190815260200160002060009054906101000a900460ff1691505092915050565b600082600081148061095057506000548110155b15610987576040517f24784b6c00000000000000000000000000000000000000000000000000000000815260040160405180910390fd5b6003600085815260200190815260200160002060008473ffffffffffffffffffffffffffffffffffffffff1673ffffffffffffffffffffffffffffffffffffffff16815260200190815260200160002060009054906101000a900460ff1691505092915050565b6000816000811480610a0257506000548110155b15610a39576040517f24784b6c00000000000000000000000000000000000000000000000000000000815260040160405180910390fd5b6003600084815260200190815260200160002060008573ffffffffffffffffffffffffffffffffffffffff1673ffffffffffffffffffffffffffffffffffffffff16815260200190815260200160002060009054906101000a900460ff1615610ace576040517fadbeca7800000000000000000000000000000000000000000000000000000000815260040160405180910390fd5b60016003600085815260200190815260200160002060008673ffffffffffffffffffffffffffffffffffffffff1673ffffffffffffffffffffffffffffffffffffffff16815260200190815260200160002060006101000a81548160ff02191690831515021790555060018060008581526020019081526020016000206007016000828254610b5d9190611865565b925050819055506000610b828560405180602001604052806000815250600187610f14565b90508473ffffffffffffffffffffffffffffffffffffffff1684827f2a2f67f5a5a11f2e2c6954ba09f62132f8e69a500e2fc2f2a54c936826ee444c42604051610bcc9190611280565b60405180910390a460016002811115610be857610be7611376565b5b8573ffffffffffffffffffffffffffffffffffffffff16827f700e7a98756de7d0f9121403656e5bb74b3b959187539b82095dadf86fd2aee58742604051610c31929190611a84565b60405180910390a4809250505092915050565b806000811480610c5657506000548110155b15610c8d576040517f24784b6c00000000000000000000000000000000000000000000000000000000815260040160405180910390fd5b6002600083815260200190815260200160002060008473ffffffffffffffffffffffffffffffffffffffff1673ffffffffffffffffffffffffffffffffffffffff16815260200190815260200160002060009054906101000a900460ff1615610d22576040517f22aba90d00000000000000000000000000000000000000000000000000000000815260040160405180910390fd5b60016002600084815260200190815260200160002060008573ffffffffffffffffffffffffffffffffffffffff1673ffffffffffffffffffffffffffffffffffffffff16815260200190815260200160002060006101000a81548160ff02191690831515021790555060018060008481526020019081526020016000206006016000828254610db19190611865565b925050819055508273ffffffffffffffffffffffffffffffffffffffff16827f7d5458e61bf2bf76987ce638f841daaa06b8829aae898a0eb343f41e38aa082f42604051610dff9190611280565b60405180910390a3505050565b6000808383905003610e4a576040517f68b3703600000000000000000000000000000000000000000000000000000000815260040160405180910390fd5b6000610e9d8585858080601f016020809104026020016040519081016040528093929190818152602001838380828437600081840152601f19601f82011690508083019250505050505050600080610f14565b905060006002811115610eb357610eb2611376565b5b8573ffffffffffffffffffffffffffffffffffffffff16827f700e7a98756de7d0f9121403656e5bb74b3b959187539b82095dadf86fd2aee56000888842604051610f019493929190611b05565b60405180910390a4809150509392505050565b600080600080815480929190610f2990611a16565b9190505590506040518061012001604052808281526020018773ffffffffffffffffffffffffffffffffffffffff168152602001868152602001428152602001856002811115610f7c57610f7b611376565b5b815260200184815260200160008152602001600081526020016000815250600160008381526020019081526020016000206000820151816000015560208201518160010160006101000a81548173ffffffffffffffffffffffffffffffffffffffff021916908373ffffffffffffffffffffffffffffffffffffffff16021790555060408201518160020190816110139190611ce7565b506060820151816003015560808201518160040160006101000a81548160ff0219169083600281111561104957611048611376565b5b021790555060a0820151816005015560c0820151816006015560e08201518160070155610100820151816008015590505080915050949350505050565b60405180610120016040528060008152602001600073ffffffffffffffffffffffffffffffffffffffff1681526020016060815260200160008152602001600060028111156110d8576110d7611376565b5b8152602001600081526020016000815260200160008152602001600081525090565b600080fd5b600080fd5b600073ffffffffffffffffffffffffffffffffffffffff82169050919050565b600061112f82611104565b9050919050565b61113f81611124565b811461114a57600080fd5b50565b60008135905061115c81611136565b92915050565b6000819050919050565b61117581611162565b811461118057600080fd5b50565b6000813590506111928161116c565b92915050565b600080fd5b600080fd5b600080fd5b60008083601f8401126111bd576111bc611198565b5b8235905067ffffffffffffffff8111156111da576111d961119d565b5b6020830191508360018202830111156111f6576111f56111a2565b5b9250929050565b60008060008060608587031215611217576112166110fa565b5b60006112258782880161114d565b945050602061123687828801611183565b935050604085013567ffffffffffffffff811115611257576112566110ff565b5b611263878288016111a7565b925092505092959194509250565b61127a81611162565b82525050565b60006020820190506112956000830184611271565b92915050565b6000602082840312156112b1576112b06110fa565b5b60006112bf84828501611183565b91505092915050565b6112d181611162565b82525050565b6112e081611124565b82525050565b600081519050919050565b600082825260208201905092915050565b60005b83811015611320578082015181840152602081019050611305565b60008484015250505050565b6000601f19601f8301169050919050565b6000611348826112e6565b61135281856112f1565b9350611362818560208601611302565b61136b8161132c565b840191505092915050565b7f4e487b7100000000000000000000000000000000000000000000000000000000600052602160045260246000fd5b600381106113b6576113b5611376565b5b50565b60008190506113c7826113a5565b919050565b60006113d7826113b9565b9050919050565b6113e7816113cc565b82525050565b60006101208301600083015161140660008601826112c8565b50602083015161141960208601826112d7565b5060408301518482036040860152611431828261133d565b915050606083015161144660608601826112c8565b50608083015161145960808601826113de565b5060a083015161146c60a08601826112c8565b5060c083015161147f60c08601826112c8565b5060e083015161149260e08601826112c8565b506101008301516114a76101008601826112c8565b508091505092915050565b600060208201905081810360008301526114cc81846113ed565b905092915050565b60008083601f8401126114ea576114e9611198565b5b8235905067ffffffffffffffff8111156115075761150661119d565b5b602083019150836020820283011115611523576115226111a2565b5b9250929050565b60008060208385031215611541576115406110fa565b5b600083013567ffffffffffffffff81111561155f5761155e6110ff565b5b61156b858286016114d4565b92509250509250929050565b600081519050919050565b600082825260208201905092915050565b6000819050602082019050919050565b6000610120830160008301516115bc60008601826112c8565b5060208301516115cf60208601826112d7565b50604083015184820360408601526115e7828261133d565b91505060608301516115fc60608601826112c8565b50608083015161160f60808601826113de565b5060a083015161162260a08601826112c8565b5060c083015161163560c08601826112c8565b5060e083015161164860e08601826112c8565b5061010083015161165d6101008601826112c8565b508091505092915050565b600061167483836115a3565b905092915050565b6000602082019050919050565b600061169482611577565b61169e8185611582565b9350836020820285016116b085611593565b8060005b858110156116ec57848403895281516116cd8582611668565b94506116d88361167c565b925060208a019950506001810190506116b4565b50829750879550505050505092915050565b600060208201905081810360008301526117188184611689565b905092915050565b60008060408385031215611737576117366110fa565b5b600061174585828601611183565b92505060206117568582860161114d565b9150509250929050565b60008115159050919050565b61177581611760565b82525050565b6000602082019050611790600083018461176c565b92915050565b600080604083850312156117ad576117ac6110fa565b5b60006117bb8582860161114d565b92505060206117cc85828601611183565b9150509250929050565b6000806000604084860312156117ef576117ee6110fa565b5b60006117fd8682870161114d565b935050602084013567ffffffffffffffff81111561181e5761181d6110ff565b5b61182a868287016111a7565b92509250509250925092565b7f4e487b7100000000000000000000000000000000000000000000000000000000600052601160045260246000fd5b600061187082611162565b915061187b83611162565b925082820190508082111561189357611892611836565b5b92915050565b600082825260208201905092915050565b82818337600083830152505050565b60006118c58385611899565b93506118d28385846118aa565b6118db8361132c565b840190509392505050565b60006040820190506118fb6000830186611271565b818103602083015261190e8184866118b9565b9050949350505050565b600060608201905061192d6000830187611271565b81810360208301526119408185876118b9565b905061194f6040830184611271565b95945050505050565b7f4e487b7100000000000000000000000000000000000000000000000000000000600052602260045260246000fd5b6000600282049050600182168061199f57607f821691505b6020821081036119b2576119b1611958565b5b50919050565b7f4e487b7100000000000000000000000000000000000000000000000000000000600052604160045260246000fd5b7f4e487b7100000000000000000000000000000000000000000000000000000000600052603260045260246000fd5b6000611a2182611162565b91507fffffffffffffffffffffffffffffffffffffffffffffffffffffffffffffffff8203611a5357611a52611836565b5b600182019050919050565b50565b6000611a6e600083611899565b9150611a7982611a5e565b600082019050919050565b6000606082019050611a996000830185611271565b8181036020830152611aaa81611a61565b9050611ab96040830184611271565b9392505050565b6000819050919050565b6000819050919050565b6000611aef611aea611ae584611ac0565b611aca565b611162565b9050919050565b611aff81611ad4565b82525050565b6000606082019050611b1a6000830187611af6565b8181036020830152611b2d8185876118b9565b9050611b3c6040830184611271565b95945050505050565b60008190508160005260206000209050919050565b60006020601f8301049050919050565b600082821b905092915050565b600060088302611ba77fffffffffffffffffffffffffffffffffffffffffffffffffffffffffffffffff82611b6a565b611bb18683611b6a565b95508019841693508086168417925050509392505050565b6000611be4611bdf611bda84611162565b611aca565b611162565b9050919050565b6000819050919050565b611bfe83611bc9565b611c12611c0a82611beb565b848454611b77565b825550505050565b600090565b611c27611c1a565b611c32818484611bf5565b505050565b5b81811015611c5657611c4b600082611c1f565b600181019050611c38565b5050565b601f821115611c9b57611c6c81611b45565b611c7584611b5a565b81016020851015611c84578190505b611c98611c9085611b5a565b830182611c37565b50505b505050565b600082821c905092915050565b6000611cbe60001984600802611ca0565b1980831691505092915050565b6000611cd78383611cad565b9150826002028217905092915050565b611cf0826112e6565b67ffffffffffffffff811115611d0957611d086119b8565b5b611d138254611987565b611d1e828285611c5a565b600060209050601f831160018114611d515760008415611d3f578287015190505b611d498582611ccb565b865550611db1565b601f198416611d5f86611b45565b60005b82811015611d8757848901518255600182019150602085019450602081019050611d62565b86831015611da45784890151611da0601f891682611cad565b8355505b6001600288020188555050505b50505050505056fea2646970667358221220a6d4f855cbf84d3f8849d8051302e8ff50f7585091980fc02cbba70ac0c2cda764736f6c63430008140033",
  "linkReferences": {},
  "deployedLinkReferences": {}
}